:10000000F8FF002011040000872300008723000070
:100010008723000087230000872300008723000038
:100020008723000087230000872300008723000028
:100030008723000087230000872300008723000018
:100040008723000087230000872300008723000008
:10040000FFFFFFFFFFFFFFFFFFFFFFFFFEFFFFFFFD
:1004100062B608F095F8FEE710B500200400E4B2DB
:10042000082C08DA0022012114F14000C0B201F0CA
:1004300009FE641CF3E700220121492001F002FEBD
:10044000012201214A2001F0FDFD012201214B2062
:1004500001F0F8FD002201214C2001F0F3FD002203
:1004600001214D2001F0EEFD4FF4A071492001F073
:100470007DFE4FF4A0714A2001F078FE4FF4A07188
:100480004B2001F073FE4FF4A0714C2001F06EFE82
:100490000020DFF8241D08600120DFF81C1D086023
:1004A0004FF4FA7001F0D9FE0120DFF8101D08604A
:1004B0000020DFF80C1D08600020DFF8081D086030
:1004C0001120DFF8041D08700020DFF8001D08600F
:1004D0000120DFF8F81C08600120DFF8E81C086044
:1004E000782001F0BAFE0120DFF8D01C086000205F
:1004F000DFF8CC1C08600020DFF8C81C0860B120C1
:10050000DFF8C41C08700020DFF8C01C0860012060
:10051000DFF8B81C08600120DFF8A81C0860012083
:10052000DFF8981C08600120DFF8941C08600020A8
:10053000DFF8901C08600520DFF88C1C0870002094
:10054000DFF8881C08600120DFF8801C08600120AB
:10055000DFF8701C08600120DFF8601C08600120D3
:10056000DFF85C1C08600020DFF8581C08603A20A7
:10057000DFF8541C08700020DFF8501C08600120D0
:10058000DFF8481C08600120DFF8381C08600120F3
:10059000DFF8281C08600120DFF8241C0860002018
:1005A000DFF8201C08603A20DFF81C1C08700020CF
:1005B000DFF8181C08600120DFF8101C086001201B
:1005C000DFF8001C08600120DFF8F01B0860002045
:1005D000DFF8EC1B08600020DFF8E81B0860B220A1
:1005E000DFF8E41B08700020DFF8E01B0860012042
:1005F000DFF8D81B08600120DFF8C81B0860012065
:10060000DFF8B81B08600120DFF8B41B0860002089
:10061000DFF8B01B08600520DFF8AC1B0870002075
:10062000DFF8A81B08600120DFF8A01B086001208C
:10063000DFF8901B08600120DFF8801B08600120B4
:10064000DFF87C1B08600020DFF8781B08603A2088
:10065000DFF8741B08700020DFF8701B08600120B1
:10066000DFF8681B08600120DFF8581B08600120D4
:10067000DFF8481B08600120DFF8441B08600020F9
:10068000DFF8401B08603A20DFF83C1B08700020B0
:10069000DFF8381B08600120DFF8301B08600120FC
:1006A000DFF8201B08600120DFF8101B0860002025
:1006B000DFF80C1B08600020DFF8081B0860B3207F
:1006C000DFF8041B08700020DFF8001B0860012021
:1006D000DFF8F81A08600120DFF8E81A0860012046
:1006E000DFF8D81A08600120DFF8D41A086000206B
:1006F000DFF8D01A08600520DFF8CC1A0870002057
:10070000DFF8C81A08600120DFF8C01A086001206D
:10071000DFF8B01A08600120DFF8A01A0860012095
:10072000DFF89C1A08600020DFF8981A08603A2069
:10073000DFF8941A08700020DFF8901A0860012092
:10074000DFF8881A08600120DFF8781A08600120B5
:10075000DFF8681A08600120DFF8641A08600020DA
:10076000DFF8601A08603A20DFF85C1A0870002091
:10077000DFF8581A08600120DFF8501A08600120DD
:10078000DFF8401A08600120DFF8301A0860012005
:10079000DFF82C1A08600020DFF8281A086005200E
:1007A000DFF8241A08700020DFF8201A0860012002
:1007B000DFF8181A08600120DFF8081A0860012025
:1007C000DFF8F81908600120DFF8F419086000204C
:1007D000DFF8F01908603A20DFF8EC190870002003
:1007E000DFF8E81908600120DFF8E019086001204F
:1007F000DFF8D01908600120DFF8C0190860012077
:10080000DFF8BC1908600020DFF8B81908603A204A
:10081000DFF8B41908700020DFF8B0190860012073
:10082000DFF8A81908600120DFF898190860012096
:10083000DFF8881908600020DFF8841908600020BC
:10084000DFF880190860B420DFF87C1908700020F8
:10085000DFF8781908600120DFF8701908600120BE
:10086000DFF8601908600120DFF8501908600120E6
:10087000DFF84C1908600020DFF8481908600720ED
:10088000DFF8441908700020DFF8401908600120E3
:10089000DFF8381908600120DFF828190860012006
:1008A000DFF8181908600020DFF81419086000202C
:1008B000DFF810190860C020DFF80C19087000205C
:1008C000DFF8081908600120DFF80019086001202E
:1008D000DFF8F01808600120DFF8E0180860012058
:1008E000DFF8DC1808600020DFF8D818086028203E
:1008F000DFF8D41808700020DFF8D0180860012055
:10090000DFF8C81808600120DFF8B8180860012077
:10091000DFF8A81808600120DFF8A418086000209C
:10092000DFF8A01808600820DFF89C180870002085
:10093000DFF8981808600120DFF89018086001209F
:10094000DFF8801808600120DFF8701808600120C7
:10095000DFF86C1808600020DFF868180860842051
:10096000DFF8641808700020DFF8601808600120C4
:10097000DFF8581808600120DFF8481808600120E7
:10098000DFF8381808600020DFF83418086000200D
:10099000DFF830180860C120DFF82C18087000203C
:1009A000DFF8281808600120DFF82018086001200F
:1009B000DFF8101808600120DFF800180860012037
:1009C000DFF8FC1708600020DFF8F8170860C02087
:1009D000DFF8F41708700020DFF8F0170860012036
:1009E000DFF8E81708600120DFF8D8170860012059
:1009F000DFF8C81708600020DFF8C417086000207F
:100A0000DFF8C0170860C220DFF8BC1708700020AC
:100A1000DFF8B81708600120DFF8B0170860012080
:100A2000DFF8A01708600120DFF8901708600120A8
:100A3000DFF88C1708600020DFF8881708600C20AA
:100A4000DFF8841708700020DFF8801708600120A5
:100A5000DFF8781708600120DFF8681708600120C8
:100A6000DFF8581708600120DFF8541708600020ED
:100A7000DFF8501708600020DFF84C1708700020DE
:100A8000DFF8481708600120DFF8401708600120F0
:100A9000DFF8301708600120DFF820170860002019
:100AA000DFF81C1708600020DFF818170860C32063
:100AB000DFF8141708700020DFF810170860012015
:100AC000DFF8081708600120DFF8F8160860012039
:100AD000DFF8E81608600120DFF8E416086000205F
:100AE000DFF8E01608608C20DFF8DC1608700020C4
:100AF000DFF8D81608600120DFF8D0160860012062
:100B0000DFF8C01608600120DFF8B0160860012089
:100B1000DFF8AC1608600020DFF8A81608602A206D
:100B2000DFF8A41608700020DFF8A0160860012086
:100B3000DFF8981608600120DFF8881608600120A9
:100B4000DFF8781608600020DFF8741608600020CF
:100B5000DFF870160860C420DFF86C1608700020FB
:100B6000DFF8681608600120DFF8601608600120D1
:100B7000DFF8501608600120DFF8401608600120F9
:100B8000DFF83C1608600020DFF8381608608A207D
:100B9000DFF8341608700020DFF8301608600120F6
:100BA000DFF8281608600120DFF818160860012019
:100BB000DFF8081608600120DFF80416086000203E
:100BC000DFF800160860EE20DFF8FC150870002042
:100BD000DFF8F81508600120DFF8F0150860012043
:100BE000DFF8E01508600120DFF8D015086000206C
:100BF000DFF8CC1508600020DFF8C8150860C520B4
:100C0000DFF8C41508700020DFF8C0150860012067
:100C1000DFF8B81508600120DFF8A815086001208A
:100C2000DFF8981508600120DFF8941508600020AF
:100C3000DFF8901508600C20DFF88C150870002094
:100C4000DFF8881508600120DFF8801508600120B2
:100C5000DFF8701508600120DFF8601508600020DB
:100C6000DFF85C1508600020DFF858150860E02008
:100C7000DFF8541508700020DFF8501508600120D7
:100C8000DFF8481508600120DFF8381508600120FA
:100C9000DFF8281508600120DFF82415086000201F
:100CA000DFF8201508600520DFF81C15087000200B
:100CB000DFF8181508600120DFF810150860012022
:100CC000DFF8001508600120DFF8F014086001204B
:100CD000DFF8EC1408600020DFF8E81408601A2040
:100CE000DFF8E41408700020DFF8E0140860012049
:100CF000DFF8D81408600120DFF8C814086001206C
:100D0000DFF8B81408600120DFF8B4140860002090
:100D1000DFF8B01408600C20DFF8AC140870002075
:100D2000DFF8A81408600120DFF8A0140860012093
:100D3000DFF8901408600120DFF8801408600120BB
:100D4000DFF87C1408600020DFF8781408600E20BB
:100D5000DFF8741408700020DFF8701408600120B8
:100D6000DFF8681408600120DFF8581408600120DB
:100D7000DFF8481408600120DFF844140860002000
:100D8000DFF8401408603A20DFF83C1408700020B7
:100D9000DFF8381408600120DFF830140860012003
:100DA000DFF8201408600120DFF81014086001202B
:100DB000DFF80C1408600020DFF808140860342005
:100DC000DFF8041408700020DFF800140860012028
:100DD000DFF8F81308600120DFF8E813086001204D
:100DE000DFF8D81308600120DFF8D4130860002072
:100DF000DFF8D01308602D20DFF8CC130870002036
:100E0000DFF8C81308600120DFF8C0130860012074
:100E1000DFF8B01308600120DFF8A013086001209C
:100E2000DFF89C1308600020DFF8981308602F207B
:100E3000DFF8941308700020DFF890130860012099
:100E4000DFF8881308600120DFF8781308600120BC
:100E5000DFF8681308600120DFF8641308600020E1
:100E6000DFF8601308602D20DFF85C1308700020A5
:100E7000DFF8581308600120DFF8501308600120E4
:100E8000DFF8401308600120DFF83013086001200C
:100E9000DFF82C1308600020DFF8281308602A20F0
:100EA000DFF8241308700020DFF820130860012009
:100EB000DFF8181308600120DFF80813086001202C
:100EC000DFF8F81208600120DFF8F4120860002053
:100ED000DFF8F01208602F20BB4908700020BB49E2
:100EE00008600120B94908600120B6490860012066
:100EF000B24908600120B24908600020B149086089
:100F00003C20B14908700020B04908600120AF4979
:100F100008600120AB4908600120A8490860012051
:100F2000A74908600020A74908600020A64908706A
:100F30000020A64908600120A44908600120A149B9
:100F4000086001209D49086001209D49086000203B
:100F50009C49086001209C49087000209B4908605A
:100F600001209A49086001209649086001209349B0
:100F70000860012092490860002092490860022020
:100F80009149087000209149086001208F4908604C
:100F900001208C49086001208849086001208849A7
:100FA00008600020874908601020874908700020E9
:100FB0008649086001208549086001208149086050
:100FC00001207E49086000207D49086000207D499D
:100FD0000860E1207C49087000207C4908600120FD
:100FE0007A49086001207749086001207349086048
:100FF000012073490860002072490860042072498A
:1010000008700020714908600120704908600120C3
:101010006C4908600120694908600120684908603E
:101020000020684908601B20674908700020674954
:1010300008600120654908600120624908600120BC
:101040005E49086001205E49086000205D49086033
:101050000D205D49087000205C49086001205B4953
:1010600008600120574908600120544908600120A8
:10107000534908600020534908600E205249087007
:1010800000205249086001205049086001204D4964
:101090000860012049490860012049490860002092
:1010A000484908602D2048490870002047490860D9
:1010B00001204649086001204249086001203F495B
:1010C000086001203E49086000203E490860292050
:1010D0003D49087000203D49086001203B490860F7
:1010E0000120384908600120344908600120344952
:1010F000086000203349086024203349087000202C
:101100003249086001203149086001202D490860FA
:1011100001202A4908600120294908600020294946
:10112000086029202849087000202849086001200B
:101130002649086001202349086001201F490860F2
:1011400001201F49086000201E49086028201E4910
:10115000087000201D49086001201C49086001201A
:1011600018490860012015490860012014490860E9
:1011700000201449086026201349087000201349F4
:10118000086001201149086001200E490860012013
:101190000A49086001200A490860002009490860DE
:1011A00031200949087000200849086001200749DA
:1011B0000860012003490BE03410FE432810FE4371
:1011C0003010FE432C10FE4380F00F402410FE43ED
:1011D00008600120DFF80C1C08600120DFF8081C03
:1011E00008600020DFF8041C08603B20DFF8001CCA
:1011F00008700020DFF8FC1B08600120DFF8F41BFA
:1012000008600120DFF8E41B08600120DFF8D41B30
:1012100008600120DFF8D01B08600020DFF8CC1B3D
:1012200008600020DFF8C81B08700020DFF8C41B2E
:1012300008600120DFF8BC1B08600120DFF8AC1B50
:1012400008600120DFF89C1B08600120DFF8981B74
:1012500008600020DFF8941B08600020DFF8901B76
:1012600008700020DFF88C1B08600120DFF8841B69
:1012700008600120DFF8741B08600120DFF8641BA0
:1012800008600120DFF8601B08600020DFF85C1BAD
:1012900008600320DFF8581B08700020DFF8541B9B
:1012A00008600120DFF84C1B08600120DFF83C1BC0
:1012B00008600120DFF82C1B08600120DFF8281BE4
:1012C00008600020DFF8241B08601220DFF8201BD4
:1012D00008700020DFF81C1B08600120DFF8141BD9
:1012E00008600120DFF8041B08600120DFF8F41A11
:1012F00008600020DFF8F01A08600020DFF8EC1A20
:1013000008603A20DFF8E81A08700020DFF8E41AD5
:1013100008600120DFF8DC1A08600120DFF8CC1A31
:1013200008600120DFF8BC1A08600120DFF8B81A55
:1013300008600020DFF8B41A08600520DFF8B01A52
:1013400008700020DFF8AC1A08600120DFF8A41A4A
:1013500008600120DFF8941A08600120DFF8841A81
:1013600008600020DFF8801A08600020DFF87C1A8F
:1013700008602920DFF8781A08700020DFF8741A56
:1013800008600120DFF86C1A08600120DFF85C1AA1
:1013900008600120DFF84C1A08600020DFF8481AC6
:1013A00008600020DFF8441A08602C20DFF8401A9B
:1013B00008700020DFF83C1A08600120DFF8341ABA
:1013C00008600120DFF8241A0860DFF8540C007868
:1013D00000F001F810BD10B50400E4B2042C04DBE9
:1013E000C821DFF8400C00F064FFDFF8340C047013
:1013F000E4B2002C09D0022C00F0B982C0F05E816A
:10140000032C00F0EA8300F0EBBC0120DFF8D419D4
:1014100008600020DFF8D01908600020DFF8CC1940
:1014200008603620DFF8C81908700020DFF8C419FA
:1014300008600120DFF8BC1908600120DFF8AC1952
:1014400008600120DFF89C1908600120DFF8981976
:1014500008600020DFF894190860C820DFF89019B0
:1014600008700020DFF88C1908600120DFF884196B
:1014700008600120DFF8741908600120DFF86419A2
:1014800008600020DFF8601908600020DFF85C19B0
:1014900008602A20DFF8581908700020DFF8541976
:1014A00008600120DFF84C1908600120DFF83C19C2
:1014B00008600120DFF82C1908600120DFF82819E6
:1014C00008600020DFF8241908600020DFF82019E8
:1014D00008700020DFF81C1908600120DFF81419DB
:1014E00008600120DFF8041908600120DFF8F41813
:1014F00008600120DFF8F01808600020DFF8EC1821
:1015000008600220DFF8E81808700020DFF8E4180F
:1015100008600120DFF8DC1808600120DFF8CC1833
:1015200008600120DFF8BC1808600120DFF8B81857
:1015300008600020DFF8B41808600020DFF8B01859
:1015400008700020DFF8AC1808600120DFF8A4184C
:1015500008600120DFF8941808600120DFF8841883
:1015600008600120DFF8801808600020DFF87C1890
:1015700008608120DFF8781808700020DFF8741800
:1015800008600120DFF86C1808600120DFF85C18A3
:1015900008600120DFF84C1808600020DFF84818C8
:1015A00008600020DFF8441808602B20DFF840189E
:1015B00008700020DFF83C1808600120DFF83418BC
:1015C00008600120DFF8241808600120DFF81418F3
:1015D00008600120DFF8101808600020DFF80C1800
:1015E00008600020DFF8081808700020DFF80418F1
:1015F00008600120DFF8FC1708600120DFF8EC1715
:1016000008600120DFF8DC1708600120DFF8D81738
:1016100008600020DFF8D41708600320DFF8D01737
:1016200008700020DFF8CC1708600120DFF8C4172D
:1016300008600120DFF8B41708600120DFF8A41764
:1016400008600120DFF8A01708600020DFF89C1771
:1016500008600020DFF8981708700020DFF8941762
:1016600008600120DFF88C1708600120DFF87C1784
:1016700008600120DFF86C1708600120DFF86817A8
:1016800008600020DFF8641708608220DFF8601728
:1016900008700020DFF85C1708600120DFF854179D
:1016A00008600120DFF8441708608020DFF878190F
:1016B00008808020DFF87419088091E30120DFF8AA
:1016C000241708600020DFF8201708600020DFF8EA
:1016D0001C1708603620DFF8181708700020DFF8A4
:1016E000141708600120DFF80C1708600120DFF8EC
:1016F000FC1608600120DFF8EC1608600120DFF816
:10170000E81608600020DFF8E4160860A820DFF87B
:10171000E01608700020DFF8DC1608600120DFF812
:10172000D41608600120DFF8C41608600120DFF835
:10173000B41608600020DFF8B01608600020DFF85B
:10174000AC1608602A20DFF8A81608700020DFF821
:10175000A41608600120DFF89C1608600120DFF85D
:101760008C1608600120DFF87C1608600120DFF885
:10177000781608600020DFF8741608600020DFF893
:10178000701608700020DFF86C1608600120DFF882
:10179000641608600120DFF8541608600120DFF8A5
:1017A000441608600120DFF8401608600020DFF8CA
:1017B0003C1608600320DFF8381608700020DFF8B8
:1017C000341608600120DFF82C1608600120DFF8CD
:1017D0001C1608600120DFF80C1608600120DFF8F5
:1017E000081608600020DFF8041608600020DFF803
:1017F000001608700020DFF8FC1508600120DFF8F3
:10180000F41508600120DFF8E41508600120DFF816
:10181000D41508600120DFF8D01508600020DFF83B
:10182000CC1508608220DFF8C81508700020DFF8AA
:10183000C41508600120DFF8BC1508600120DFF83E
:10184000AC1508600120DFF89C1508600020DFF867
:10185000981508600020DFF8941508602B20DFF849
:10186000901508700020DFF88C1508600120DFF863
:10187000841508600120DFF8741508600120DFF886
:10188000641508600120DFF8601508600020DFF8AB
:101890005C1508600020DFF8581508700020DFF89C
:1018A000541508600120DFF84C1508600120DFF8AE
:1018B0003C1508600120DFF82C1508600120DFF8D6
:1018C000281508600020DFF8241508600220DFF8E2
:1018D000201508700020DFF81C1508600120DFF8D3
:1018E000141508600120DFF8041508600120DFF8F6
:1018F000F41408600120DFF8F01408600020DFF81D
:10190000EC1408600020DFF8E81408700020DFF80D
:10191000E41408600120DFF8DC1408600120DFF81F
:10192000CC1408600120DFF8BC1408600120DFF847
:10193000B81408600020DFF8B41408608120DFF8D4
:10194000B01408700020DFF8AC1408600120DFF844
:10195000A41408600120DFF8941408608020DFF8E8
:10196000C81608808020DFF8C416088038E20120FD
:10197000DFF8701408600020DFF86C1408600020A5
:10198000DFF8681408603620DFF86414087000205F
:10199000DFF8601408600120DFF8581408600120A7
:1019A000DFF8481408600120DFF8381408600120CF
:1019B000DFF8341408600020DFF8301408600820D5
:1019C000DFF82C1408700020DFF8281408600120CC
:1019D000DFF8201408600120DFF8101408600120EF
:1019E000DFF8001408600020DFF8FC130860002016
:1019F000DFF8F81308602A20DFF8F41308700020DD
:101A0000DFF8F01308600120DFF8E8130860012018
:101A1000DFF8D81308600120DFF8C8130860012040
:101A2000DFF8C41308600020DFF8C013086000204E
:101A3000DFF8BC1308700020DFF8B813086001203D
:101A4000DFF8B01308600120DFF8A0130860012060
:101A5000DFF8901308600120DFF88C130860002085
:101A6000DFF8881308600220DFF884130870002074
:101A7000DFF8801308600120DFF878130860012088
:101A8000DFF8681308600120DFF8581308600120B0
:101A9000DFF8541308600020DFF8501308600020BE
:101AA000DFF84C1308700020DFF8481308600120AD
:101AB000DFF8401308600120DFF8301308600120D0
:101AC000DFF8201308600120DFF81C1308600020F5
:101AD000DFF8181308608120DFF814130870002065
:101AE000DFF8101308600120DFF8081308600120F8
:101AF000DFF8F81208600120BA4908600020BA49EE
:101B000008600020B94908602B20B94908700020FE
:101B1000B84908600120B74908600120B34908604E
:101B20000120B04908600120AF4908600020AF499A
:101B300008600020AE4908700020AE49086001200E
:101B4000AC4908600120A94908600120A549086046
:101B50000120A54908600020A44908600320A44989
:101B600008700020A34908600120A24908600120F4
:101B70009E49086001209B49086001209A4908603D
:101B800000209A490860002099490870002099496E
:101B900008600120974908600120944908600120ED
:101BA0009049086001209049086000208F49086032
:101BB00082208F49087000208E49086001208D49DD
:101BC00008600120894908608020DFF85C140880E3
:101BD0008020DFF85814088002E101208149086064
:101BE0000020814908600020804908603620804933
:101BF000087000207F49086001207E4908600120AC
:101C00007A49086001207749086001207649086018
:101C100000207649086068207549087000207549E1
:101C200008600120734908600120704908600120A4
:101C30006C49086000206C49086000206B4908600E
:101C40002A206B49087000206A4908600120694910
:101C50000860012065490860012062490860012090
:101C600061490860002061490860002060490870EF
:101C700000206049086001205E49086001205B493E
:101C8000086001205749086001205749086000207A
:101C900056490860032056490870002055490860DD
:101CA00001205449086001205049086001204D4935
:101CB000086001204C49086000204C490860002061
:101CC0004B49087000204B490860012049490860D1
:101CD000012046490860012042490860012042492C
:101CE00008600020414908608220414908700020B6
:101CF0004049086001203F49086001203B490860D5
:101D00000120384908600020374908600020374921
:101D100008602B20364908700020364908600120F1
:101D20003449086001203149086001202D490860CC
:101D300001202D49086000202C49086000202C4912
:101D4000087000202B49086001202A490860012002
:101D500026490860012023490860012022490860C3
:101D600000202249086002202149087000202149F2
:101D7000086001201F49086001201C4908600120FB
:101D800018490860012018490860002017490860B8
:101D900000201749087000201649086001201549E5
:101DA000086001201149086001200E4908600120E7
:101DB0000D49086000200D49086081200C49087019
:101DC00000200C49086001200A49086001200749E9
:101DD0000860802094490880802094490880FFE7AB
:101DE00010BD00002810FE433010FE432C10FE43AF
:101DF00080F00F402410FE4303B489480078C007E8
:101E00000AD5BDF80000C01CADF80000BDF8020006
:101E1000801CADF8020009E0BDF80000801CADF8A0
:101E20000000BDF80200C01CADF80200012080498E
:101E3000086000207F49086000207F4908602A2050
:101E40007E49087000207E49086001207C490860B6
:101E50000120794908600120754908600120754911
:101E60000860002074490860BDF8000080B2000AD4
:101E700072490870002072490860012070490860AA
:101E800001206D4908600120694908600120694905
:101E90000860002068490860BDF8000067490870C4
:101EA00000206749086001206549086001206249F7
:101EB000086001205E49086001205E49086000203A
:101EC0005D490860BDF80000BDF8041011FA80F00B
:101ED000401E00125949087000205949086001202D
:101EE00057490860012054490860012050490860A2
:101EF00001205049086000204F490860BDF80000EB
:101F0000BDF804100818401E4C49087000204C49C8
:101F1000086001204A490860012047490860012003
:101F20004349086000204349086000204249086096
:101F30002B20424908700020414908600120404997
:101F4000086001203C4908600120394908600120EF
:101F500038490860002038490860BDF8020080B2A6
:101F6000000A3649087000203549086001203449CC
:101F7000086001203049086001202D4908600120D7
:101F80002C49086000202C490860BDF802002B494C
:101F9000087000202A4908600120294908600120B2
:101FA0002549086001202249086001202149086074
:101FB000002021490860BDF80200BDF8061011FAA2
:101FC00080F0401E00121D49087000201C49086066
:101FD00001201B49086001201749086001201449AD
:101FE0000860012013490860002013490860BDF80B
:101FF0000200BDF806100818401E104908700020A5
:102000000F49086001200E49086001200A49086054
:1020100002B0704704480088704704480088704741
:102020003825FF1FB0860000600DFF1F620DFF1FE7
:102030002810FE433010FE432C10FE4380F00F406A
:102040002410FE4370B504000D0016004FF480719B
:102050002000C0B200F08AF86DB2002D11D14148C5
:10206000E4B2611150F821003E49E4B2621151F826
:1020700022104969012214F01F039A4091434161E3
:1020800036E03848E4B2611150F821003549E4B235
:10209000621151F822104969012214F01F039A407D
:1020A00011434161F6B2002E11D12E48E4B2611104
:1020B00050F821000068012114F01F02914088436C
:1020C0002849E4B2621151F82210086010E0254856
:1020D000E4B2611150F821000068012114F01F02E0
:1020E000914008431F49E4B2621151F82210086080
:1020F00070BD10B504001B48E4B2611150F8210016
:10210000406914F01F01C840C00703D47B21164862
:1021100000F0CFF81348E4B2611150F8210001211A
:1021200014F01F029140C16010BD10B504000D48AD
:10213000E4B2611150F82100406914F01F01C84059
:10214000C00703D58C21084800F0B3F80548E4B275
:10215000611150F82100006914F01F01C84010F00F
:10216000010010BDFC0BFF1FC488000010B42B4AF7
:1021700013684FF400740200D2B2520914FA02F24A
:102180001A43264B1A60264AC0B2431152F8232044
:10219000012310F01F04A340C2F8A030204AC0B2AF
:1021A000431152F82320C0B210F01F0342F823104D
:1021B00010BC704710B4194A13684FF40074020041
:1021C000D2B2520914FA02F21A43144B1A60144A9A
:1021D000C0B2431152F82320012310F01F04A34082
:1021E000C2F8A03031F4E0610D4AC0B2431152F898
:1021F0002320C0B210F01F0352F8232012F4E06233
:102200001143074AC0B2431152F82320C0B210F064
:102210001F0342F8231010BC7047000038800440B0
:102220006C0CFF1F10B50400002C15D0B4F1807F9A
:1022300003D329210F4800F03CF800200E49086024
:102240000E48046000200E49086005200A49086015
:1022500009480068C003FBD510BD10B5040020007C
:10226000441E002804D007480068FFF7DBFFF6E7AC
:1022700010BD00006C87000010E000E014E000E0FA
:1022800018E000E0D424FF1FDFF800F0990DFF1FD5
:10229000DFF800F0BD0DFF1FBFF34F8F4748006808
:1022A00010F4E0604649084344490860BFF34F8F8B
:1022B000FEE738B504000D00002000F08FF82A007A
:1022C0002100404800F0C2F8002000F0A4F84FF4CC
:1022D0007A70FFF7C2FFF2E738B504000D00210065
:1022E00049B2042000F0E8F9200032BD10B5002406
:1022F000042000F02FFA042000F062FA002841D1F7
:10230000002000F06BF8042000F05AFA012801D1F7
:1023100001200400002000F07EF82B4800F096F821
:102320004FF4FA70FFF799FFE4B2012CEBD10420CF
:1023300000F046FA0028E6D1042000F041FA002817
:1023400006D1002000F067F86420FFF786FFF3E76E
:10235000042000F035FA012806D1002000F05BF8D7
:102360003220FFF77AFFF3E7184800F06FF8FFF725
:102370008BFF6420FFF771FF0020FFF789FFFFF755
:102380008BFFC0E710BD10B511480468012000F0B4
:1023900025F8012000F03FF80E48E4B20F2101FBC0
:1023A00004F100EB0102E4B221000B4800F04EF80A
:1023B0004FF47A70FFF751FFEBE700000CED00E0FF
:1023C0000400FA055C890000A88A0000D889000092
:1023D00004ED00E0E404FF1F3087000010B50400A6
:1023E00064B2042C07DA01220121174864B2005DAF
:1023F000FFF728FE0EE0042004002000441E40B237
:10240000002807D0012201210F4864B2005DFFF7C8
:1024100019FEF2E710BD10B5040064B2042C05DA11
:10242000094864B2005DFFF764FE0CE0042004007C
:102430002000441E40B2002805D0034864B2005D6D
:10244000FFF757FEF4E710BDB80CFF1F0EB400B540
:1024500082B003A9009102466B46012103487844EB
:102460000A3000F0C5F906BC5DF810FB19660000E3
:10247000012110F01F029140DFF8BC2240B2430955
:1024800042F8231070472DE9F84304000D0064B2B0
:10249000002C08D0022C2CD018D3042C4FD03BD3C6
:1024A000052C5FD071E0DFF89402006850F4806082
:1024B000DFF8881208604FF440716620FFF756FE7F
:1024C0004FF440716720FFF751FE5EE0DFF86C02C9
:1024D000006850F40060DFF8641208604FF4407147
:1024E0004320FFF743FE4FF440714420FFF73EFEC8
:1024F0004BE0DFF84802006850F48050DFF83C12EF
:1025000008604FF440716320FFF730FE4FF44071D4
:102510006220FFF72BFE38E0DFF82002006850F45D
:102520000050DFF8181208604FF440715020FFF798
:102530001DFE4FF440715120FFF718FE25E0DFF833
:102540000002006850F48060DFF8F41108604FF476
:1025500040714E20FFF70AFE4FF440714F20FFF705
:1025600005FE12E0DFF8D801006850F40060DFF8E3
:10257000D01108604FF440718920FFF7F7FD4FF448
:1025800040718820FFF7F2FDFFE7DFF8B80164B281
:1025900050F82400C07810F0F300DFF8A81164B2FE
:1025A00051F82410C870DFF89C0164B250F8240080
:1025B0008078DFF8901164B251F82410887064B20A
:1025C000002C02D064B2012C07D1DFF87C01006836
:1025D0004FF47A714843814606E0DFF870010068E5
:1025E0004FF47A71484381462801B9FBF0F00600A8
:1025F000B6B2B6F5005F02DB41F6FF700600B9FB2C
:10260000F5F0B6B2B0EB06100700BFB2202F03DB27
:10261000DC214F48FFF74DFE4A4864B250F82400D1
:10262000007810F0E0008046C6F3042050EA08006D
:10263000444964B251F824100870424864B250F81A
:10264000240046703F4864B250F82400807A10F0AD
:10265000E000804617F01F0050EA0800394964B2D4
:1026600051F824108872374864B250F82400007C76
:1026700050F08800334964B251F82410087431488E
:1026800064B250F82400C07850F00C002D4964B2B8
:1026900051F82410C870BDE8F1832A4A40B252F8BC
:1026A000202012799206F8D5264A40B252F820200E
:1026B00092F907200A707047224A40B252F820204F
:1026C00012791206F8D51F4A40B252F82020D17173
:1026D000704701001B4849B250F82100807D002856
:1026E00001D0012000E00020704738B504000D0043
:1026F0002878002809D095F90000010049B220008F
:1027000040B2FFF7D9FF6D1CF2E731BD10B50400F0
:102710000C4864B250F82400C07850F020000949F9
:1027200064B251F82410C87064B260002D3040B219
:10273000FFF79EFE10BD000000E100E03480044081
:1027400028800440800CFF1FD424FF1FDC24FF1FBF
:10275000A887000010B5040064B2082C0DDA00222E
:102760000021224864B2005DFFF76CFC03211F4882
:1027700064B2005DFFF71EFD14E008200400200095
:10278000441E40B200280DD000220021174864B238
:10279000005DFFF757FC0321144864B2005DFFF7AA
:1027A00009FDECE710BD10B50400104864B2005DEF
:1027B000FFF7BBFC002801D1002000E0012010BD84
:1027C00010B50400200040B2FFF7EDFF00280AD149
:1027D0000A20FFF742FD200040B2FFF7E4FF002887
:1027E00001D1002000E0012010BD0000B00CFF1F4F
:1027F0002DE9F04FA1B08246002016461D460291F9
:102800000B900DF144086FF000490AE016F8011B27
:102810000298D0470028029000F0AF820B98401C2D
:102820000B903078010001D10B98A8E22528EDD15A
:102830000020059006900790089009900A9001E00A
:1028400040F0010016F8011F2029F9D023290DD0EE
:102850002B2904D02D2906D030290AD00CE040F0D5
:10286000020080B2EEE740F00400FAE740F0080012
:10287000F7E740F01000F4E72A290ED12968296013
:1028800051F8042B2960002A0D9204D5514240F0E2
:1028900004000D9180B2761C11E000210D9109E039
:1028A0000D99494505D001EB810302EB4301303915
:1028B0000D91761C3278A2F130010A29F0D33178DB
:1028C0002E2903D04FF0FF310C911DE016F8011FA7
:1028D0002A2907D129682960761C51F8042B296020
:1028E0000C9211E000210C9109E00C99494505D0AA
:1028F00001EB810302EB430130390C91761C3278F5
:10290000A2F130010A29F0D3ADF838000FF6D82033
:10291000317800F077FD08B116F8010B8DF83A0018
:102920009DF83A00682802BF31786829622005D0F6
:102930006C2804BF30786C2803D171208DF83A00E0
:10294000761C11A8049016F8017BB7F1250024D05D
:102950002038022840F2C380133800F0E8800B389A
:1029600000F05681401E00F02C81401E022840F2EB
:10297000B680001F00F02581401F00F08180401EBE
:1029800000F0D580401E24D0C01E0BD0801E00F069
:10299000CE80C01E00F0CB8044E125208DF844009D
:1029A000012049E12868286050F8044B286003940E
:1029B0000C9F002F04D5204600F030FD074606E0AE
:1029C0003A460021204600F045FD00B1071B06975E
:1029D00033E129682960002251F8040B29600021A5
:1029E000CDE9000111A80390DDE900019142049FA7
:1029F00008BF90424FF03C0C01D10C9AC2B100F0DC
:102A00000F033033DBB23A2BA8BF2733ACF10102FE
:102A10000009BB54944640EA017009090022914222
:102A200008BF904204D0039A07EB0C039A42E6D306
:102A300007EB0C000390CCF13C010C98069181420D
:102A400009DA401A08904FF6EF71BDF838000840D7
:102A5000ADF83800F1E0002840F1EF809DF8380033
:102A600000F01400102840F0E8800D98059A801AB4
:102A7000089A801A401A0128C0F2DF800890DCE032
:102A80009DF83A0062281AD0682806D06A280CD02F
:102A90006C281CD0712808D019E02868286050F8EC
:102AA000041B28600B980880C7E02868286050F84D
:102AB000042B28600B98C117C2E90001BDE028680B
:102AC000286050F8041B28600B980870B5E028684F
:102AD000286050F8041B28600B980860ADE0286857
:102AE000C01D20F007022A60D2E9000108322A60E6
:102AF000CDE90001002902D505982D210AE0BDF895
:102B00003800810702D505982B2103E0C00705D5C1
:102B10000598202108F80010401C059011A805997F
:102B2000084403903946684600F0E8F985E09DF8CE
:102B30003A006C280DD0712818BF6A2809D128687E
:102B4000C01D20F007022A60D2E9000108322A6085
:102B500005E02968296051F8040B29600021CDE9BE
:102B600000019DF83A00682803D1DDE9000180B238
:102B70000BE0622803D1DDE90001C0B205E0742852
:102B800018BF7A2804D1DDE900010021CDE9000158
:102B90009DF83800000732D5DDE90023002083428C
:102BA00008BF82422BD047F02000782827D1059813
:102BB000302108F80010401C411C059108F80070F5
:102BC0001DE09DF83A00294600F0DCF8CDE900014F
:102BD000DDE9002300218B4202DA05982D210AE06D
:102BE000BDF83800810702D505982B2103E0C00706
:102BF00005D50598202108F80010401C059011A863
:102C00000599084403903946684600F0F2F814E04C
:102C1000012005902868286050F8041B28608DF872
:102C200044100AE025208DF844000120059038006A
:102C300003D088F80170022005900D980599401A7C
:102C40000899401A0699401A0999401A0799401A9A
:102C50000A99471A9DF83800400710D42020012F08
:102C60008DF840000BDB3C46012310AA6946504614
:102C700000F0A2FB002840F08080641EF4D1DDF853
:102C800014B0BBF1000F11AC0CD014F8011B02986A
:102C9000D0470028029070D00B98401CBBF1010B6C
:102CA0000B90F2D130208DF84000089C012C09DBFC
:102CB000012310AA6946504600F07EFB00285CD133
:102CC000641EF5D1DDF818B0039CBBF1000F0CD0E9
:102CD00014F8011B0298D047002802904DD00B98A1
:102CE000401CBBF1010B0B90F2D130208DF840005D
:102CF000099C012C09DB012310AA6946504600F00B
:102D00005BFB002839D1641EF5D103980699DDF8E4
:102D10001CB04418BBF1000F0BD014F8011B029833
:102D2000D047029048B30B98401CBBF1010B0B90AD
:102D3000F3D130208DF840000A9C012C08DB0123E0
:102D400010AA6946504600F037FBB0B9641EF6D1B0
:102D50009DF8380040077FF564AD2020012F8DF8E5
:102D60004000FFF65EAD012310AA6946504600F010
:102D700023FB10B97F1EF6D153E54FF0FF3021B091
:102D8000BDE8F08F622826D068281DD06A2808D0B8
:102D90006C2827D0712804D0742823D07A280CD02E
:102DA00020E00868C01D20F007000860D0E900237B
:102DB000083008601946104670470A680A6052F8E1
:102DC000040B0A60002170470A680A6052F8040B7D
:102DD0000A6000B20BE00A680A6052F8040B0A604D
:102DE00040B204E00A680A6052F8040B0A60C11796
:102DF00070472DE9F343054608462F696F2808BF41
:102E0000082405D041F02001782914BF0A24102499
:102E10003C26D5E90023642818BF692890469946C6
:102E200006D100218B4203DAD8F1000869EB490989
:102E30000020814508BF80450CD1286B50B9082C73
:102E400038D195F83800000734D530203B2687F874
:102E50003B002FE0701E0090064640464946224641
:102E6000E31700F023FB02F13000C0B23A2803DB85
:102E70009DF8041051390818B85549464046224675
:102E8000E31700F013FB804689460020814508BF08
:102E9000804503D0E868B9198842DBD3082C09D1F2
:102EA00095F83800000705D5B85D302802D0761EA9
:102EB0003020B855B919E960C6F13C00296BA8610A
:102EC000884208DA081A28624FF6EF71288F084006
:102ED0002887BDE8F38300290ED595F8381001F056
:102EE0001401102908D1696B6A69891A2A6A891A3A
:102EF0000E1A012EA8BF2E62BDE8F3832DE9F34F11
:102F00008BB0D0E90089006B002801AF48BF0620D4
:102F100005D404BF41F02000672802D101200B999D
:102F2000086340F2FF720B984168C1F30A50904267
:102F300020D1080302BF0B98006800280AD10B9922
:102F4000032088619DF8300061381A2858D30FF2A9
:102F5000AC4109E00B99032088619DF8300061388D
:102F60001A284AD30FF28C410B98C068032200F054
:102F700015FBFFE0012807DA0B9800F04AFB012857
:102F800002DB00230026ECE00B9ADFF854B1526814
:102F900040F2FE3161F31E520B994A6040F2FE315D
:102FA000401A00B247F2975148434E4990FBF1F660
:102FB000404649460022002300F04EFB36B238BF9F
:102FC00089F00049C6F10707012F92461BDBF8077D
:102FD00007D552465B464046494600F055FB8046C1
:102FE00089465046594652465B467F1000F04CFBDE
:102FF000002F82468B46EAD126E00FF2F431B3E788
:103000000FF2F431B0E77F420024374D12E0F807A9
:1030100007D552465B462046294600F035FB04465C
:103020000D465046594652465B4600F02DFB7F1038
:1030300082468B46002FEAD14046494622462B461F
:1030400000F0F4FB804689469DF830000B99DFF8CC
:103050009CB0096B40F02005662D0CBF06F10A00FC
:1030600006204718142FA8BF132730208DF804001E
:103070000DF10504012F3BDB4046494600F002FDFF
:10308000014604F1080204234FF00A0CB1FBFCFCDA
:103090000CEB8C04A1EB4401303102F8011C0A2135
:1030A000BCFBF1FE0EEB8E04ACEB440430345B1E33
:1030B000714602F8024DE7D1083F012F02F10804E2
:1030C000D8DB00F0F5FC02460B464046494600F0CE
:1030D000FDFC00225B4600F0D7FA80468946CBE72C
:1030E00000002440A08601000000F03F84D79741F3
:1030F0000DF10500201A0DF1050702E0401E761EB5
:103100007F1C39783029F9D0662D08BF711C03D097
:10311000652D0CBF012100210B9A126B8B181BB27D
:103120009842B8BF03461BB219001AD4814204DA90
:10313000785C3528A8BF392000DA30207A18521E72
:1031400000E05B1E12F80149491E8442F9D039287B
:1031500002D1785C401C7854002902D57F1E5B1C8C
:10316000761C36B29DF830100B9800961BB23A468A
:1031700000F003F80DB0BDE8F08F2DE9F04786B000
:1031800006468A4690461D4600F07DFD012D406AA8
:10319000376B90F8009002DA01250FF264284AF0AC
:1031A0002000BDF93840662808BF641C13D067288A
:1031B00040F08A8014F1040F75DBBC4273DA96F894
:1031C0003800641C000702D4BD42B8BF2F4624B2A9
:1031D0003F1B48BF002724B2F068B169012C23DAF5
:1031E0004A1C30234354012F03DA96F838000007B5
:1031F00003D5F06800F80290521CE742B8BF7C4249
:1032000024B260427062E719AF42B261B8BF3D4676
:10321000F068B3692DB2F5612A464146184400F0C2
:10322000BDF9781BB062B0E022469542084416DA38
:103230002A46414600F0B2F9B1696918601B012FB6
:10324000B161706203DA96F83800000705D5F068BE
:1032500000F80190F069401CF061B76295E04146CA
:1032600000F09CF9B06920182D1B012F03DA96F8A5
:103270003810090703D5F16801F80090401CB061CF
:103280002DB2AF42B8BF3D46F068B3692DB22A46B1
:1032900008EB0401184400F081F9B0692818B06106
:1032A000781B706271E0BD4204DA96F838100907A5
:1032B00058BF2F467F1E48BF0027BAF1670F0CBFCB
:1032C0004FF0650A4FF0450AB169F368481CB061D8
:1032D000012F18F8012B5A5403DA96F83810090711
:1032E00017D5F168431CB36101F80090012F10DB82
:1032F0006D1E2DB2AF42B8BF3D46F0682DB22A46D2
:103300004146184400F04AF9B0692818B061781BAA
:103310007062F068B1690144200081F800A004D413
:103320002B20487001F1020804E02D224A7001F1BF
:1033300002086442002502AF08E00A22684600F055
:10334000BBFC019807F8010B6D1C009C21B2012900
:10335000F3DA022D06DA4AF02000652804BF302097
:1033600008F8010B4DB9302008F8010B07E06D1E7D
:1033700002A8405D303008F8010B012DF7DAF06843
:10338000B1690844A8EB0000F06196F8380000F03D
:10339000140010280DD17069B1690818716A0818F5
:1033A000F1690818B16A0818716B8842BCBF081A25
:1033B000306206B0BDE8F087F8B504460D46164603
:1033C0001F46002077B116F8011BA868A047A86027
:1033D00030B1E86A401CE86200207F1EF3D1F2BDE4
:1033E0004FF0FF30F2BD0000686A6C747A4C000048
:1033F0006E616E004E414E00696E6600494E460099
:10340000300001000278C9B28A421AB11CBF10F81C
:10341000012FF9E718BF00207047000000F10103F9
:10342000810704D010F8011B89B18107FAD1026825
:10343000B2F10131914311F0803F04BF50F8042FE5
:10344000F6E710F8011B11B110F8011BFBE7C01AD9
:1034500070470000C9B2830706D0521E22D310F86D
:10346000013B9942F7D11FE0083A13D302F104025D
:1034700041EA012141EA014150F8043B121F21BFFA
:103480004B40A3F1013C2CEA030C1CF0803FF3D02D
:10349000C9B2001F083210F8013B521E28BF91EA42
:1034A000030FF8D818BF0120401E70471B4213D1EC
:1034B000094236D12AB18446B0FBF2F002FB10C2B9
:1034C000704700F001BCFCD30022002370470B00C2
:1034D0000200002100207047904271EB030CF6D3EC
:1034E00070B5B1FA81F4B3FA83F52C1BA340C4F193
:1034F000200532FA05F63343A2405FF00046E6406D
:1035000002E05B085FEA3202841A71EB030524BF14
:10351000204629467641F4D302000B0030000021FA
:1035200070BD012ACFD970B5140C20D0B1FA81F446
:10353000B2FA82F5C4F120046419B4F12006D6D39E
:10354000B2405FF00044F440002502E052085FEA18
:103550003303C61A71EB020E24BF30467146644134
:103560006D41F3D302000B002000290070BD0C4612
:10357000B1FBF2F102FB11452D0445EA1045B5FB04
:10358000F2F402FB145580B240EA0545B5FBF2F0B7
:1035900002FB105240EA044070BD000062B38B078A
:1035A00008D0521E11F8013B00F8013B00F02480C6
:1035B0008B07F6D1830740F0208000BF103A07D375
:1035C00030B4B1E83810103AA0E83810F9D230BC65
:1035D000530724BFB1E80810A0E8081044BF51F811
:1035E000043B40F8043BD20724BF31F8022B20F8FB
:1035F000022B44BF0B7803707047083A07D3B1E839
:103600000810083A40F8043B40F804CBF7D25307BF
:10361000E4E730B4436803F000420121C3F313032D
:103620004360002B04BF0368002B08D10DE0036842
:10363000DD0F45EA440444605B000360491E4468B2
:10364000E302F4D5C4F31303436043681A434260B2
:10365000084630BC704700004FF4001C1CEB410FC3
:1036600094BF1CEB430F09E041EA030C50EA4C0CF9
:1036700052EA0C0C03D2994208BF9042704714BF23
:103680008B42824270470000B0B581EA030C0CF017
:10369000004C40F2FF7515EA11541DBF15EA13578F
:1036A000AC42AF4239E0E41923EA455343F48013B6
:1036B000C90241F0004141EA505EC7021100A7FB78
:1036C000020200284FF00000EEFB01204FF0000145
:1036D000E3FB072118BF42F00102401800214941D5
:1036E000E3FB0E01A4F580640F0302D252004041B7
:1036F000494154F101046CDD470872F1004250F178
:10370000000051EB0451A1F580115CBF41EA0C01AE
:10371000B0BD4CEA05510020B0BD05EA1357AC42DC
:1037200014BFAF4241E050EA410E1CBF52EA430EC3
:1037300002E061460020B0BD24423C441BD15FEA58
:10374000070EF6D0090302BF01460020AEF1140EA9
:10375000B1FA81F7AEEB070401FA07FE0C37C7F1A7
:10376000200100FA07F7C8404EEA000E23EA45534D
:1037700043F48013A2E733F00043B3FA83F704BFA6
:10378000B2FA82FE77440B3FE41BB7F1200E2FBF45
:1037900002FA0EF3BB40C7F1200E22FA0EFE38BF2C
:1037A00043EA0E03BA40641C82E750EA410E14BF9C
:1037B00052EA430E6FF000014FF4001717EB430F6E
:1037C0008ABF194617EB410FB5E74CEA05510020B7
:1037D000B0BDD4F10104B4F120070FDAC4F1200721
:1037E000520828BF42F0010210FA07F501FA07F764
:1037F000E1BF2A43E0403843E1400FE0352C98DC3C
:10380000C7F1200452EA400220FA07F218BF42F042
:10381000010231FA07F0A1400A43002172F100428F
:1038200050F1000051EB0C01B0BD00002DE9F0415A
:1038300040F2FF7581EA030C0CF0004C15EA1154BC
:103840001DBF15EA1357AC42AF42E9E0BC41C1F3DA
:103850001301C3F31303801A994143F4801304D274
:10386000641E4000494180185941C90241EA505143
:10387000B1FBF3F603FB1611A2FB0675D7EBC020D4
:10388000A94102D2761E80185941C90241EA50511D
:10389000B1FBF3FE03FB1E11A2FB0E75D7EBC0209C
:1038A000A94103D2AEF1010E80185941890241EAC3
:1038B0009051760546EA8E2EB1FBF3F603FB161106
:1038C000A2FB0675D7EB8020A94102D2761E801894
:1038D0005941C90241EA50514EEA060EB1FBF3F6D6
:1038E00003FB1611A2FB0675D7EBC020A94102D23B
:1038F000761E80185941C90241EA5051B1FBF3F7D5
:1039000003FB1711A2FB0735D3EBC020A94167F1D8
:1039100000070CBF004247F0010766F3D5274FEAC6
:103920001E31B80814F5806414DDBD0775F100423E
:1039300050EB0E5051EB045111F5801F5CBF41EA72
:103940000C01BDE8F0814CF07F6141F0E0410020C6
:10395000BDE8F081BD076D0840EA0E5041F48011CA
:10396000D4F10104B4F120060ADAC4F12006020001
:10397000E04001FA06F3E1401843B24015430EE07F
:10398000342C14DCC6F1200445EA40056D0820FA09
:1039900006F2154321FA06F0A1400D43002175F10E
:1039A000004250F1000051EB0C01BDE8F081002015
:1039B0005FEA0C01BDE8F081CFB992185B41B3FA20
:1039C00083F704BFB2FA82F6BF190B3FB7F12006A6
:1039D0002FBF02FA06F3BB40C7F1200622FA06F613
:1039E00038BF3343BA401CB1E419641E2FE77F424D
:1039F00031F00041B1FA81F404BFB0FA80F6A419A5
:103A00000B3CB4F120062FBF00FA06F1A140C4F12F
:103A1000200620FA06F638BF3143A0403C1B16E7CB
:103A2000AC421ABF05EA1357AF4214E050EA410610
:103A30001CBF52EA4306BFE750EA410730466146E1
:103A40001CBF41EA0551BDE8F08152EA430C08BFB2
:103A5000C143BDE8F08100204FF4001616EB410F82
:103A600098BF16EB430F08BF16EB410F24BFC143AD
:103A700005E016EB430F0CBF61464CEA0551BDE86B
:103A8000F0810000400D40EAC120490080F00D8027
:103A900040F00040490DA1F58061491C05D4D1F1E9
:103AA0001F0154BFC840C01770474FF00000704757
:103AB000010000BF09D0B0FA80F18840C91CC1F5EF
:103AC0008461090501EBD02140057047F0B44FF047
:103AD000004591EA030F44BF6B4000F0F7B800BF08
:103AE000841A71EB030604D26E40001BB141121917
:103AF00073414FF4001C1CEB410F34BF7CEB4306B9
:103B000084E00C0DA4EB1356362E7DDC012E43DC35
:103B100045EAC32343EA525312BFD20292025B0822
:103B2000240545EAC12141EA5051D2EBC020994118
:103B300025D407D1B0FA80F610FA06F164D000203F
:103B4000203608E0B1FA81F6B140C6F1200220FA31
:103B500002F21143B0404FEAF474B4EB465434F02F
:103B600001064FEA74040AD8D6F50016760D04F063
:103B70000044F04061FA06F25040F1404840C00A6B
:103B800040EA415021F0004128BF5FEA500550F162
:103B9000000044EBD12137E045EAC323DB0A45EAC4
:103BA000C121C90AB6F120050EDD42EA0242120C1B
:103BB000C5F1200603FA06F6EB4042EA06056D421F
:103BC000984161F100010DE062FA06F5F2405540BE
:103BD00063FA06FC82EA0C02F3405A406D429041BF
:103BE00061EB030111F4801F05D1641E620502D050
:103BF0006D004041494121F48011430875F10043B3
:103C000050F1000041EB0451F0BC70471CEB410F38
:103C100015D223F0004352EA43060BD04FEA4C0C76
:103C2000BCEB410F04D80C0D661E342EB7DDEBE75C
:103C3000801A994150EA410608BF0021E4E708BF15
:103C40001CEB430F28BF6FF00001DDE780B5134880
:103C500000F0A6F80FF24C020FF24401016042623C
:103C600041600FF24402826381600FF24402C1603E
:103C70000161416181618162C16201634163C2632B
:103C80000164416401BD10B5044800F089F80446A0
:103C9000206808B9FFF7DAFF204610BD3C25FF1F5A
:103CA000000000002E00000066616C7365000000DB
:103CB000747275650000000091FBF2F303FB1211B2
:103CC000C0E900317047000070470000841A71EBB2
:103CD000030603D2001BB141121973414FF4001CBB
:103CE0001CEB410F34BF7CEB430443E00C0DA4EB11
:103CF0001356352E50DC45EAC323DB0A45EAC121C1
:103D0000C912B6F120050DDD63FA05F6EB4086EA2F
:103D10000305124218BF45F00105C01851F100011A
:103D20000CD213E062FA06F5F2405540F3415A40D6
:103D3000B340F3405A408018594107D349085FEA1D
:103D400030005FEA350528BF45F0010501F5801117
:103D5000420875F1004250F1000041EB0451F0BC03
:103D60004FF4001C1CEB410F38BF70470020090DB9
:103D7000090570471CEB410F10D252EA43060BD0E5
:103D8000BCEB410F05D80C0DAB43661E342EB5DDE0
:103D900002E0AB4380185941F0BC7047F0BC70475B
:103DA00070470000F8B504000D0056480068201A5E
:103DB0002860286810F1010F04DB2868022801DA66
:103DC00000202860E86829680818E860E868652825
:103DD00001DB6420E860E86810F1640F02DA7FF02C
:103DE0006300E860484806682F68E86801F0A0FCB6
:103DF0004549496801F0B4FC01F01EFD07FB0600CF
:103E0000414989683F4A12683E4B9B68D21A02FBBF
:103E100001002861286868603A480068394988606C
:103E20003A4800683A4908602869384908603748C4
:103E30000068B0F5AF7F04DD4FF4AF703349086020
:103E400007E03248006810F5AF7F02DA31482F49A9
:103E50000860F1BDF8B504000D002A484068201A3A
:103E60002860286810F1010F04DB2868022801DAB5
:103E700000202860E86829680818E860E868652874
:103E800001DB6420E860E86810F1640F02DA7FF07B
:103E90006300E860204806682F68E86801F048FC85
:103EA0001D49496801F05CFC01F0C6FC07FB0600F7
:103EB00019498968134A5268124BDB68D21A02FB0F
:103EC00001002861286868600E4840680D49C86094
:103ED00012480068124908602869104908600F48B4
:103EE0000068B0F5AF7F04DD4FF4AF700B49086098
:103EF00007E00A48006810F5AF7F02DA0548074975
:103F00000860F1BD8424FF1F980CFF1FBC24FF1F15
:103F1000C424FF1FA2FEFFFFA40CFF1FC024FF1F2D
:103F2000C824FF1F80B5DFF8A40D0068012819D14F
:103F3000DFF83C0C006841F2707188420EDADFF85D
:103F4000341CDFF8340C8068FFF72CFFDFF82C1CE2
:103F5000DFF8240CC068FFF77DFF03E00020DFF8E6
:103F6000101C0860DFF8640D0068022805D0DFF837
:103F70005C0D0068162840F0E880DFF8500D0068FE
:103F800002284DD10020DFF8F81B08802320DFF83D
:103F9000F41B88602320DFF8F01B886040F25A5041
:103FA000DFF8E81B086040F27260DFF8A41D0860CB
:103FB000DFF8C01BDFF8C00B006DFFF7F3FEDFF882
:103FC000BC1BDFF8B40B406DFFF744FFDFF8840D36
:103FD0000068DFF8A41B896A401A032820DADFF89A
:103FE000740D0068DFF8901B896A401A10F1050F04
:103FF00016DBDFF8600D4068DFF87C1BC96A401AE9
:1040000006280DDADFF84C0D4068DFF86C1BC96A32
:10401000401A10F1050F03DB1620DFF8B01C086012
:10402000DFF8A80C0068162840F08F801920DFF810
:10403000541B08601920DFF8501B0860DFF8341BA0
:10404000DFF8340B806AFFF7ADFEDFF8301BDFF8D6
:10405000280BC06AFFF7FEFEDFF8F80C0068DFF8F7
:10406000181B896A401A032823DADFF8E80C006875
:10407000DFF8041B896A401A10F1020F19DBDFF820
:10408000D40C4068DFF8F01AC96A401A032810DA25
:10409000DFF8C00C4068DFF8E01AC96A401A10F176
:1040A000020F06DBDFF8D80A0088401CDFF8D01AC0
:1040B0000880DFF8CC0A0088B0F5967F0EDADFF8CA
:1040C000B41ADFF8B40A806AFFF76CFEDFF8AC1AA6
:1040D000DFF8A40AC06AFFF7BDFE36E0DFF8A00AE9
:1040E0000088B0F5967F12D10020DFF8841A0860AE
:1040F000DFF8801ADFF8800A806AFFF753FEDFF8E6
:104100007C1ADFF8740AC06AFFF7A4FE1DE0DFF82E
:10411000700A0088002801D1012000E00020C0B210
:10412000DFF84C0A006840F6B83188420DDADFF853
:10413000441ADFF8440A806AFFF734FEDFF83C1ABD
:10414000DFF8340AC06AFFF785FEDFF8800B0068ED
:1041500003280FD0DFF8740B006820280AD0DFF89E
:104160006C0B0068212805D0DFF8600B006822285E
:1041700040F0DB81DFF8540B0068032844D10020B5
:10418000DFF8FC1908804FF4AA60DFF8001A086015
:1041900040F28660DFF8B81B0860DFF8D819DFF856
:1041A000D809806DFFF7FEFDDFF8D019DFF8C809E8
:1041B000C06DFFF74FFEDFF89C0B0068DFF8B81901
:1041C000096A401A04281FDADFF8880B0068DFF854
:1041D000A819096A401A10F1030F15DBDFF8740BF8
:1041E0004068DFF89419496A401A04280CDADFF8AD
:1041F000640B4068DFF88019496A401A002803D42C
:104200002020DFF8C81A0860DFF8C00A00682028FC
:1042100040F0A68040F25A50DFF8701908604FF461
:10422000CD60DFF82C1B08601020DFF858190860FB
:104230001020DFF854190860DFF83819DFF8380962
:10424000006AFFF7AFFDDFF83419DFF82C09406A88
:10425000FFF700FEDFF8FC0A0068DFF81C19096AA6
:10426000401A04282BDADFF8EC0A0068DFF8081996
:10427000096A401A10F1030F21DBDFF8D80A406801
:10428000DFF8F418496A401A042818DADFF8C40A7B
:104290004068DFF8E418496A401A10F1030F0EDB9A
:1042A000DFF8DC080088401CDFF8D41808801420F0
:1042B000DFF8D01808601420DFF8CC180860DFF8A9
:1042C000C0080088B0F5967F0EDADFF8A818DFF88E
:1042D000A808006AFFF766FDDFF8A018DFF8980865
:1042E000406AFFF7B7FD3BE0DFF894080088B0F5BF
:1042F000967F12D10020DFF878180860DFF8741874
:10430000DFF87408006AFFF74DFDDFF87018DFF87A
:104310006808406AFFF79EFD22E0DFF86408008825
:10432000002801D1012000E00020C0B2DFF84008E1
:10433000006840F6B83188420EDADFF83818DFF846
:104340003808006AFFF72EFDDFF83018DFF828087C
:10435000406AFFF77FFD03E02120DFF87019086055
:10436000DFF86809006821284AD140F25A50DFF886
:104370001C18086040F27260DFF8D41908600E2043
:10438000DFF8001808600F20DFF8FC170860DFF87E
:10439000E417DFF8E407006E401EFFF703FDDFF8C7
:1043A000DC17DFF8D407406EFFF754FDDFF8A409EF
:1043B0000068DFF8C417896A401A022820DADFF89B
:1043C00094090068DFF8B017896A401A10F1030FEA
:1043D00016DBDFF880094068DFF89C17C96A401ACD
:1043E00004280DDADFF86C094068DFF88C17C96A19
:1043F000401A10F1030F03DB2220DFF8D018086009
:10440000DFF8C8080068222840F08F80DFF86417C2
:10441000DFF86407806AFFF7C5FCDFF86017DFF894
:104420005807C06AFFF716FDDFF828090068DFF8B3
:104430004817896A401A03282BDADFF81809006840
:10444000DFF83417896A401A10F1020F21DBDFF818
:1044500004094068DFF82017C96A401A032818DAEF
:10446000DFF8F0084068DFF81017C96A401A10F149
:10447000020F0EDBDFF808070088401CDFF800178A
:1044800008801220DFF8FC1608601220DFF8F8160A
:104490000860DFF8EC060088B0F5967F0EDADFF8EA
:1044A000D416DFF8D406806AFFF77CFCDFF8CC1660
:1044B000DFF8C406C06AFFF7CDFC36E0DFF8C006BF
:1044C0000088B0F5967F12D10020DFF8A4160860AE
:1044D000DFF8A016DFF8A006806AFFF763FCDFF8BC
:1044E0009C16DFF89406C06AFFF7B4FC1DE0DFF805
:1044F00090060088002801D1012000E00020C0B211
:10450000DFF86C06006840F6B83188420DDADFF853
:104510006416DFF86406806AFFF744FCDFF85C1677
:10452000DFF85406C06AFFF795FCDFF8A0070068C3
:10453000042814D0DFF89407006829280FD0DFF88A
:104540008C0700682A280AD0DFF8800700682B282B
:1045500005D0DFF8780700682C2840F09281DFF85A
:104560006C070068042840F09C800020DFF81016DB
:1045700008804FF4AF60DFF81416086040F28660E0
:10458000DFF8CC170860DFF8EC15DFF8EC05006DFC
:10459000C01EFFF707FCDFF8E415DFF8DC05406D0F
:1045A000C01CFFF757FCDFF8AC070068DFF8C81540
:1045B000896A401A072820DADFF898070068DFF8D0
:1045C000B815896A401A10F1060F16DBDFF8840768
:1045D0004068DFF8A415C96A401A07280DDADFF829
:1045E00074074068DFF89015C96A401A10F1060F89
:1045F00003DB2A20DFF8D4160860DFF858070068CC
:10460000DFF87415896F401A052820DADFF84407AF
:104610000068DFF86415896F401A10F1040F16DB8B
:10462000DFF830074068DFF85015C96F401A0528D9
:104630000DDADFF820074068DFF83C15C96F401A33
:1046400010F1040F03DB2A20DFF880160860DFF882
:1046500004070068DFF82015896C401A062820DA64
:10466000DFF8F0060068DFF81015896C401A10F1C9
:10467000050F16DBDFF8DC064068DFF8FC14C96CB8
:10468000401A06280DDADFF8CC064068DFF8E81497
:10469000C96C401A10F1050F03DB2C20DFF82C1633
:1046A0000860DFF8280600682A2808D12B20DFF8E8
:1046B0001C16086040F23660DFF894160860DFF8D8
:1046C0000C0600682B2839D1DFF8A814DFF8A804FD
:1046D000806F801DFFF766FBDFF8A014DFF89804F9
:1046E000C06F801FFFF7B6FBDFF868060068DFF8D1
:1046F0008814896C401A012820DADFF8580600680F
:10470000DFF87414896C401A10F1040F16DBDFF81F
:1047100044064068DFF86014C96C401A05280DDAB9
:10472000DFF830064068DFF85014C96C401A10F109
:10473000040F03DB2C20DFF894150860DFF88C05EC
:1047400000682C2840F09D8040F25E60DFF8001683
:104750000860DFF82014DFF82004806CFFF722FBEC
:10476000DFF81814DFF81004C06CFFF773FBDFF8F4
:10477000E4050068DFF80014896C401A03282BDA7E
:10478000DFF8D0050068DFF8F013896C401A10F1EB
:10479000020F21DBDFF8BC054068DFF8DC13C96CD1
:1047A000401A032818DADFF8AC054068DFF8C813B0
:1047B000C96C401A10F1020F0EDB0F20DFF8C41392
:1047C00008600F20DFF8C0130860DFF8B40300882A
:1047D000401CDFF8AC130880DFF8A4030088B0F5B4
:1047E000967F0EDADFF88C13DFF88C03806CFFF70E
:1047F000D9FADFF88813DFF88003C06CFFF72AFBD3
:104800003FE0DFF87C030088B0F5967F12D10020EE
:10481000DFF85C130860DFF85C13DFF85C03806C82
:10482000FFF7C0FADFF85413DFF84C03C06CFFF752
:1048300011FB26E0DFF848030088002801D10120A1
:1048400000E00020C0B2DFF82803006840F6B8316D
:1048500088420EDADFF81C13DFF81C03806CFFF7C8
:10486000A1FADFF81813DFF81003C06CFFF7F2FAB3
:1048700007E00020DFF80C1348600020DFF8081381
:104880004860DFF848040068052819D0DFF83C04C8
:104890000068332814D0DFF83404006834280FD0BF
:1048A000DFF82804006835280AD0DFF82004006803
:1048B000362805D0DFF814040068372840F07082ED
:1048C000DFF80804006805283DD140F25A50AF498E
:1048D00008604FF4CD60DFF8781408600020A84924
:1048E0000880A449A448D0F88800FFF75BFAA349E0
:1048F000A148D0F88C00FFF7ADFADFF85804006843
:104900009D490969401A01281DDADFF8480400684A
:1049100099490969401A10F1020F14DBDFF83404D9
:10492000406895494969401A04280CDADFF82404E4
:10493000406891494969401A10F1030F03DB3320A5
:10494000DFF888130860DFF884030068332879D122
:1049500010208C49086010208B49086085498648E2
:104960000069FFF71FFA854983484069FFF772FA2B
:10497000DFF8E003006880490969401A042824DA56
:10498000DFF8D00300687C490969401A10F1030F71
:104990001BDBDFF8C003406877494969401A0428E7
:1049A00013DADFF8B003406873494969401A10F11F
:1049B000030F0ADB10207349086010207249086059
:1049C0006F480088401C6E4908806D480088B0F52B
:1049D000967F0ADA674968480069FFF7E3F9674993
:1049E00065484069FFF736FA2CE065480088B0F565
:1049F000967F0DD100205E4908605E495E480069DF
:104A0000FFF7D0F95D495C484069FFF723FA19E0E8
:104A10005B480088002801D1012000E00020C0B2DE
:104A20005348006864280ADA524953480069FFF77E
:104A3000B9F9524950484069FFF70CFA02E03420B6
:104A4000A2490860A1480068342835D10F204D499B
:104A500008600F204C49086046494748D0F8C0001C
:104A6000FFF7A0F945494448D0F8C400FFF7F2F930
:104A7000B84800684049096B401A03281CDAB54859
:104A800000683D49096B401A10F1050F14DBB1486D
:104A900040683949496B401A06280DDAAD4840682C
:104AA0003549496B401A10F1050F05DB3520874960
:104AB000086000203249088084480068352840F0AA
:104AC0007E802C492C48006BFFF76CF92B492A4853
:104AD000406BFFF7BFF99F4800682749096B401AF0
:104AE000042821DA9B4800682349096B401A10F119
:104AF000030F19DB974840681F49496B401A042887
:104B000012DA944840681C49496B401A10F1030FAF
:104B10000ADB10201B49086010201B490860184858
:104B20000088401C1649088015480088B0F5967F1B
:104B30000ADA10491048006BFFF734F90F490E48A4
:104B4000406BFFF787F93AE00D480088B0F5967F93
:104B50001ED100200649086006490748006BFFF790
:104B600021F906490448406BFFF774F927E000BFBC
:104B70007024FF1F9424FF1F1804FF1FA824FF1F89
:104B80003625FF1F980CFF1FA40CFF1F1004FF1FEA
:104B9000DFF8DC0A006864280EDADFF8D81ADFF8DC
:104BA000D80A006BFFF7FEF8DFF8D01ADFF8C80A62
:104BB000406BFFF74FF902E0362044490860434854
:104BC000006836284ED140F25A50DFF8B41A086017
:104BD00040F272605E4908600E20DFF8A81A086093
:104BE0000F20DFF8A41A0860DFF8881ADFF8880AB7
:104BF000D0F8A000FFF7D6F8DFF8801ADFF8780ABF
:104C0000D0F8A400FFF726F952480068DFF8681AC8
:104C1000896C401A042825DA4E480068DFF8581AD3
:104C2000896C401A10F1030F1CDB4A484068DFF81A
:104C3000481AC96C401A042814DA46484068DFF85C
:104C4000381AC96C401A10F1010F0BDB37201F49CD
:104C50000860DFF8AC0A0088002801D1012000E0DC
:104C60000020C0B219480068372840F0998040F20F
:104C70005A50DFF80C1A0860DFF8F819DFF8F80965
:104C8000806CFFF78FF8DFF8F419DFF8EC09C06CDF
:104C9000FFF7E0F82F480068DFF8DC19896C401A4C
:104CA00003282CDA2B480068DFF8CC19896C401AED
:104CB00010F1020F23DB27484068DFF8BC19C96CEC
:104CC000401A03281BDA234802E000BFE004FF1F5C
:104CD0004068DFF8A419C96C401A10F1020F0EDB0E
:104CE000DFF81C0A0088401CDFF8141A0880102026
:104CF000DFF8901908601020DFF88C190860DFF8E1
:104D0000000A0088B0F5967F0EDADFF86819DFF840
:104D10006809806CFFF746F8DFF86019DFF858097A
:104D2000C06CFFF797F83BE0DFF8D4090088B0F5D6
:104D3000967F17D10020DFF838190860DFF83419A2
:104D4000DFF83409806CFFF72DF8DFF8301903E045
:104D50001404FF1F8424FF1FDFF81C09C06CFFF739
:104D600079F81DE0DFF898090088002801D10120BA
:104D700000E00020C0B2DFF8F808006840F6B83163
:104D800088420DDADFF8EC18DFF8EC08806CFFF7EA
:104D900009F8DFF8E818DFF8E008C06CFFF75AF808
:104DA000DFF860090068062814D0DFF858090068A9
:104DB0003D280FDADFF84C09006846280ADBDFF8E7
:104DC00044090068502805DADFF8380900685A28D5
:104DD00080F24D84DFF82C090068062845D14FF495
:104DE000AF60DFF89C1808604FF4CD60DFF8181949
:104DF00008600020DFF808190880DFF87818DFF86D
:104E000078080069FEF7CEFFDFF87018DFF8680851
:104E10004069FFF71FF8DFF8F4080068DFF858185A
:104E20008969401A042820DADFF8E0080068DFF812
:104E300048188969401A10F1030F16DBDFF8CC0817
:104E40004068DFF83418C969401A04280DDADFF821
:104E5000BC084068DFF82018C969401A10F1030F38
:104E600003DB3D20DFF89C180860DFF89808006835
:104E70003D2840F09280DFF8FC17DFF8FC078069DE
:104E8000FEF790FFDFF8F417DFF8EC07C069FEF7D4
:104E9000E1FFDFF878080068DFF8DC178969401A5D
:104EA00004282BDADFF864080068DFF8CC1789697A
:104EB000401A10F1030F21DBDFF850084068DFF8DB
:104EC000B817C969401A042818DADFF840084068A2
:104ED000DFF8A417C969401A10F1030F0EDB102088
:104EE000DFF8A01708601020DFF89C170860DFF8D3
:104EF00010080088401CDFF808180880DFF8000858
:104F00000088B0F5967F0EDADFF86817DFF86807DB
:104F10008069FEF747FFDFF86417DFF85C07C069B8
:104F2000FEF798FF39E0DFF8D8070088B0F5967FE4
:104F300012D10020DFF838170860DFF83817DFF8E3
:104F400038078069FEF72EFFDFF83017DFF82807F3
:104F5000C069FEF77FFF20E0DFF8A4070088002883
:104F600001D1012000E00020C0B2DFF80407006892
:104F7000C8280EDADFF8FC16DFF8FC068069FEF7B9
:104F800011FFDFF8F816DFF8F006C069FEF762FFE0
:104F900003E03E20DFF86C170860DFF86807006860
:104FA0003E283FD10E20DFF8DC1608600F20DFF826
:104FB000D8160860DFF8BC16DFF8BC06806CFEF778
:104FC000F1FEDFF8B816DFF8B006C06CFEF742FF5E
:104FD000DFF838070068DFF8A016096B401A0128CF
:104FE00020DADFF828070068DFF88C16096B401A12
:104FF00010F1030F16DBDFF814074068DFF87816AE
:10500000496B401A04280DDADFF800074068DFF822
:105010006816496B401A10F1030F03DB3F20DFF8DD
:10502000E4160860DFF8DC0600683F2840F09A804C
:105030001020DFF8501608601020DFF84C160860CA
:10504000DFF83016DFF83006806CFEF7ABFEDFF8D5
:105050002C16DFF82406C06CFEF7FCFEDFF8AC0669
:105060000068DFF81416896C401A03282BDADFF881
:105070009C060068DFF80016896C401A10F1020FD8
:1050800021DBDFF888064068DFF8EC15C96C401AB0
:10509000032818DADFF874064068DFF8DC15C96CFD
:1050A000401A10F1020F0EDB1020DFF8D81508604F
:1050B0001020DFF8D4150860DFF844060088401C93
:1050C000DFF83C160880DFF838060088B0F5967FD8
:1050D0000EDADFF8A015DFF8A005806CFEF762FE9F
:1050E000DFF89815DFF89005C06CFEF7B3FE39E0E5
:1050F000DFF80C060088B0F5967F12D10020DFF8AB
:1051000070150860DFF86C15DFF86C05806CFEF731
:1051100049FEDFF86815DFF86005C06CFEF79AFEFF
:1051200020E0DFF8DC050088002801D1012000E044
:105130000020C0B2DFF838050068C8280EDADFF8B2
:105140003415DFF83405806CFEF72CFEDFF82C15E3
:10515000DFF82405C06CFEF77DFE03E03F20DFF89A
:10516000A4150860DFF89C05006840284BD10E208C
:10517000DFF8101508600F20DFF80C15086040F20A
:105180005A50DFF8FC1408604FF4CD60DFF8781552
:105190000860DFF8E014DFF8E004D0F89800FEF7CC
:1051A00001FEDFF8D814DFF8D004D0F89C00FEF739
:1051B00051FEDFF858050068DFF8BC14096B401A8F
:1051C000042820DADFF844050068DFF8AC14096B26
:1051D000401A10F1030F16DBDFF830054068DFF8E6
:1051E0009814496B401A04280DDADFF8200540684E
:1051F000DFF88414496B401A10F1010F03DB4120E2
:10520000DFF800150860DFF8FC040068412840F072
:105210009380DFF86014DFF86004006BFEF7C2FDD6
:10522000DFF85814DFF85004406BFEF713FEDFF888
:10523000DC040068DFF84014096B401A03282BDAFD
:10524000DFF8C8040068DFF83014096B401A10F169
:10525000020F21DBDFF8B4044068DFF81C14496B4F
:10526000401A032818DADFF8A4044068DFF80814AD
:10527000496B401A10F1020F0EDB1020DFF8041406
:1052800008601020DFF800140860DFF8740400885C
:10529000401CDFF86C140880DFF864040088B0F567
:1052A000967F0EDADFF8CC13DFF8CC03006BFEF745
:1052B00079FDDFF8C813DFF8C003406BFEF7CAFDC5
:1052C0003AE0DFF83C040088B0F5967F12D1002068
:1052D000DFF89C130860DFF89C13DFF89C03006B79
:1052E000FEF760FDDFF89413DFF88C03406BFEF7E8
:1052F000B1FD21E0DFF808040088002801D1012079
:1053000000E00020C0B2DFF868030068B0F5FA7F63
:105310000EDADFF86013DFF86003006BFEF742FD82
:10532000DFF85813DFF85003406BFEF793FD03E0FE
:105330004220DFF8D0130860DFF8C8030068422875
:1053400040D10E20DFF83C1308600F20DFF838133F
:105350000860DFF82013DFF82003D0F8A000FEF784
:1053600021FDDFF81813DFF81003D0F8A400FEF7D2
:1053700071FDDFF898030068DFF8FC12896C401AB1
:1053800004281FDADFF884030068DFF8EC12896C68
:10539000401A10F1030F15DBDFF870034068DFF8E7
:1053A000D812C96C401A03280CDADFF86003406891
:1053B000DFF8C412C96C401A002803D44320DFF878
:1053C00044130860DFF83C030068432840F09780EE
:1053D00040F26450DFF8A81208601020DFF8A41231
:1053E00008601020DFF8A0120860DFF88812DFF8EC
:1053F0008802806CFEF7D6FCDFF88012DFF87802B6
:10540000C06CFEF727FDDFF804030068DFF86812C0
:10541000896C401A032823DADFF8F0020068DFF80D
:105420005812896C401A10F1020F19DBDFF8DC0208
:105430004068DFF84412C96C401A032810DADFF81C
:10544000CC024068DFF83012C96C401A10F1020F2C
:1054500006DBDFF8AC020088401CDFF8A4120880ED
:10546000DFF89C020088B0F5967F0EDADFF80412B0
:10547000DFF80402806CFEF795FCDFF80012DFF81D
:10548000F801C06CFEF7E6FC39E0DFF87402008832
:10549000B0F5967F12D10020DFF8D4110860DFF854
:1054A000D411DFF8D401806CFEF77CFCDFF8CC115E
:1054B000DFF8C401C06CFEF7CDFC20E0DFF840024D
:1054C0000088002801D1012000E00020C0B2DFF8F0
:1054D000A0010068C8280EDADFF89811DFF89801FB
:1054E000806CFEF75FFCDFF89411DFF88C01C06C74
:1054F000FEF7B0FC03E04420DFF808120860DFF894
:1055000004020068442838D1DFF86811DFF8680128
:10551000D0F8A800FEF746FCDFF86011DFF858016C
:10552000D0F8AC00FEF796FCDFF8E0010068DFF889
:105530004811096C401A04281FDADFF8D00100680E
:10554000DFF83411096C401A002816D4DFF8BC01CA
:105550004068DFF82411496C401A04280DDADFF89E
:10556000AC014068DFF81011496C401A10F1030FCC
:1055700003DB4520DFF88C110860DFF88801006844
:10558000452874D140F25A503D49086039493A489B
:10559000006CFEF707FC39493748406CFEF75AFCAF
:1055A000DFF8680100683449096C401A032820DAE2
:1055B000DFF8580100683049096C401A10F1020FF9
:1055C00017DBDFF8480140682B49496C401A032873
:1055D0000FDADFF8380140682749496C401A10F1AA
:1055E000020F06DBDFF818010088401CDFF81011FD
:1055F0000880DFF80C010088B0F5967F0ADA1D49B3
:105600001D48006CFEF7CEFB1C491B48406CFEF7A2
:1056100021FC2CE03A480088B0F5967F0DD100209F
:105620001349086013491448006CFEF7BBFB13498B
:105630001148406CFEF70EFC19E031480088002844
:1056400001D1012000E00020C0B209480068C8284C
:105650000ADA08490848006CFEF7A4FB0749064827
:10566000406CFEF7F7FB02E050202649086001BDC0
:105670007024FF1F9424FF1F1804FF1FA824FF1F7E
:105680001004FF1F980CFF1FA40CFF1F38B5204803
:10569000006820490968401A05001F4800681F4932
:1056A0000968401A04001E480088401C00FB05F0F1
:1056B000022190FBF1F017490968081819490860A0
:1056C00017480088401C00FB04F0022190FBF1F019
:1056D00012490968081814490860144800681149FB
:1056E0000968421A0021022000F074FA0648006896
:1056F0000D4909680A180121022000F06BFA31BD3A
:105700003625FF1FE004FF1F1404FF1F8424FF1F22
:10571000BC24FF1FC424FF1FC024FF1FC824FF1F79
:105720003425FF1FCC24FF1FD024FF1F1004FF1FB0
:10573000002840F10780F446404200F003F850F0A2
:10574000004060470AD0B0FA80F18840D1F19D0155
:10575000C905020672F1004241EB102070470000BB
:10576000FF2212EAD05C1DBF12EAD1539445934246
:105770002BE09C44D30780EA01021A4043EA002050
:1057800043EA0121A1FB0030410038BF40007CF119
:105790007F010BDBFE294ADA5B0842EAC15153EA7A
:1057A000006373F1004C51EB10207047D1F1080CED
:1057B000DCF120012FDB5B0810FA01F10B4373F1E0
:1057C000004120FA0CF05041704794451CBF02EA9A
:1057D000D153934280EA010202F000421DD0400002
:1057E00019D0490017D05BB9634514D00902B1FA4A
:1057F00081F39940BCEB030CC00140F00040C1E7CD
:105800000002B0FA80FC10FA0CF0B3EB0C0CC901EA
:1058100041F00041B6E71000704740000AD049004F
:1058200008D010F1807F94BF11F1807F02E042F038
:10583000FF407047D04370474100090E7F3915D4AF
:10584000D1F11F0114D4400007D2C00140F0004044
:10585000C84048BF6FF000407047C00140F00040B2
:10586000C8404CBF4FF00040404270470020704796
:1058700000424FF0004058BFC043704738B50400A5
:105880000D0064B2002C06D0022C69D04CD3032C3E
:1058900000F08280C7E0DFF85004006850F08070AC
:1058A000DFF8441408606DB2002D0BD0022D15D026
:1058B0000ED3042D1ED017D3062D27D020D3072DAD
:1058C0002AD02FE04FF480614120FCF74FFC2AE002
:1058D0004FF440710420FCF749FC24E04FF4407180
:1058E0000520FCF743FC1EE04FF440710620FCF756
:1058F0003DFC18E04FF440710720FCF737FC12E044
:105900004FF480616520FCF731FC0CE04FF48061BE
:105910006620FCF72BFC06E04FF480616720FCF763
:1059200025FC00E07FE07EE0DFF8BC03006850F07B
:105930000070DFF8B41308606DB2002D02D0012DA5
:1059400006D00BE04FF440710820FCF70FFC06E096
:105950004FF440710D20FCF709FC00E063E062E0C9
:10596000DFF88803006850F08070DFF8801308606B
:105970006DB2002D02D0012D06D00BE04FF4407126
:105980000A20FCF7F3FB06E04FF440710B20FCF714
:10599000EDFB00E047E046E0DFF85003006850F020
:1059A0000070DFF8481308606DB2002D0BD0022D97
:1059B00015D00ED3042D1ED017D3062D27D020D3FB
:1059C000072D2AD02EE04FF4C0618520FCF7CEFBD6
:1059D00028E04FF4C0618620FCF7C8FB22E04FF4BA
:1059E000C0618720FCF7C2FB1CE04FF4C061882037
:1059F000FCF7BCFB16E04FF4C0618920FCF7B6FB56
:105A000010E04FF4C0618A20FCF7B0FB0AE04FF4CD
:105A1000C0618B20FCF7AAFB04E04FF4C0618C202E
:105A2000FCF7A4FBFFE731BD2DE9F84F04000D00A2
:105A300016001F0064B2002C11D064B2012C02D0F9
:105A400064B2022C02D16DB2022D08DB64B2032CC9
:105A500005D040F28511DFF89802FCF72AFC2900F6
:105A600049B2200040B2FFF709FFDFF88802006862
:105A70004FF47A71484380465FEA1840B0FBF6F075
:105A80008146002082461FFA89F9484650FA0AF0FA
:105A9000012802DB1AF1010AF5E75FFA8AFABAF186
:105AA000080F05DB4FF4D071DFF84402FCF701FC6E
:105AB000404630FA0AF0B0FBF6F081461FFA89F949
:105AC000DFF8340264B240F8249064B2002C05D0B0
:105AD000022C19D00DD3032C22D02CE01FFA89F907
:105AE00019F1010000FB07F06421B0FBF1F08346DF
:105AF00021E01FFA89F919F1010000FB07F0642188
:105B0000B0FBF1F0834616E01FFA89F919F10100A4
:105B100000FB07F042F21071B0FBF1F083460AE09F
:105B20001FFA89F919F1010000FB07F06421B0FBAD
:105B3000F1F08346FFE7DFF8C40164B250F82400B7
:105B40006DB200EBC500DFF8B41164B251F8241057
:105B50006DB201EBC501C96831F00401C160DFF825
:105B60009C0164B250F824006DB200EBC5002821FE
:105B7000C1605FFA8AFA1AF0070050F00800DFF8F7
:105B80007C1164B251F8241008601FFA89F9DFF81B
:105B90006C0164B250F82400C0F808900020DFF8CF
:105BA0005C1164B251F82410C864DFF8500164B28B
:105BB00050F824006DB200EBC5001FFA8BFBC0F853
:105BC00010B00020DFF8341164B251F8241048609E
:105BD000BDE8F18F2DE9F04104000D0016005FF0E3
:105BE000000864B2002C11D064B2012C02D064B25F
:105BF000022C02D16DB2022D08DB64B2032C05D059
:105C00004FF4F371DFF8E800FCF753FB64B2002CAB
:105C100005D0022C15D00BD3032C1DD025E0652E0A
:105C200005D34FF4F671DFF8C800FCF742FB1CE027
:105C3000652E05D34FF4F871DFF8B400FCF739FB9B
:105C400013E042F21170864205D34FF4FA71DFF887
:105C5000A000FCF72EFB08E0652E05D340F2F911F9
:105C6000DFF88C00FCF725FBFFE7DFF88C0064B25F
:105C700050F82400804664B2002C05D0022C15D0C8
:105C80000BD3032C1CD024E018F1010000FB06F01C
:105C90006421B0FBF1F007001BE018F1010000FBEC
:105CA00006F06421B0FBF1F0070012E018F10100EA
:105CB00000FB06F042F21071B0FBF1F0070008E0C3
:105CC00018F1010000FB06F06421B0FBF1F00700C1
:105CD000FFE7DFF8280064B250F824006DB200EB53
:105CE000C5000761BDE8F0813C800440308004407D
:105CF0008C880000DC24FF1F7424FF1FEC0BFF1FA7
:105D000078050000400600001F000000160000009B
:105D10002E000000060000001D000000070000002B
:105D20000E00000007000000310000001600000017
:105D30001E000000160000000D000000180000000A
:105D400030000000280000001B00000030000000B0
:105D50000E00000029000000280000000D000000D7
:105D6000300000000E0000002700000016000000B8
:105D700026000000210000001E0000001D000000A1
:105D800017000000210000002C0000000E000000A1
:105D900026000000070000001300000007000000BC
:105DA0000C000000110000000C00000021000000A9
:105DB0001400000029000000290000002900000054
:105DC0003000000021000000150000000F0000005E
:105DD00001000000000000000000000000000000C2
:105DE00000000000000000000000000000000000B3
:105DF00000004E6F6E4D61736B61626C6500000058
:105E000000486172644661756C7400000000000017
:105E10004D656D4D616E6167656D656E7400004224
:105E200075734661756C74000000000000005573C6
:105E30006167654661756C74000000000000000039
:105E40000000000000000000000000000000000052
:105E50000000000000000000000000000000000042
:105E60000000000000000000000000000000000032
:105E7000000000000000000000535643616C6C00FD
:105E8000000000000000000044656275674D6F6E01
